:1000000000900000000400001FB600000000000087
:1000100000000000000000000000000000000000E0
:1000200002366B009600960701F400023518023E76
:10003000450000020826D2AF320000020816D2AFF7
:10004000320000022866D2AF32000002081E208A69
:1000500003020E34900184E06003020E349001EE3E
:10006000E07002A3E06003020E349001ECE0700245
:10007000A3E06003020E34900171E07002A3E0601F
:1000800003020E349000F1E064206003020E34900D
:10009000013FE0FF6003020E34EF704B900117E068
:1000A000FBA3E0FAA3E0F91214FDFFAEF090010506
:1000B000E0FBA3E0FAA3E0F91214FDD39FE5F09E64
:1000C0004003020E347E007F0C7D007B017A0179B3
:1000D00040121740E490017DF0A3F09001F4F0A3EA
:1000E000F09001F2F0A3F0E4F5B2900181E0FFA3FB
:1000F000E0900211CFF0A3EFF0C20B300403020D29
:10010000FF758D20438D20758D8043A808D2AF7573
:100110008B02758EC820042E9000F1E064207026BA
:10012000200923E5DB5404701D758A84200913E53A
:10013000DB5404700DF58675870300000075860199
:100140008006D20B8002D20B758B01758A1053A8E2
:10015000F7D39001EDE094909001ECE09401400E13
:10016000A3E02470F09001ECE034FEF08007E4900E
:1001700001ECF0A3F0D39001F9E094909001F8E045
:100180009401400EA3E02470F09001F8E034FEF0FA
:100190008007E49001F8F0A3F0E4900215F0A3F0DA
:1001A0001222E0900167EEF0A3EFF090016BEEF009
:1001B000A3EFF0C3900212E09FFF900211E09EFEB9
:1001C000123E61900213EEF0A3EFF0D39414EE947C
:1001D00000502E900216E004F07006900215E00424
:1001E000F0D3900216E09405900215E094004002CE
:1001F000D20BD3900214E0940F900213E0940050BD
:100200009FC3900214E09414900213E09400400302
:10021000020DE2300B03020DE290015BE0FEA3E071
:10022000FF90016BE0FCA3E0FD9FEC9E4053ED9F2F
:10023000FFEC9EFE7C007D051217139001AA12169A
:10024000D6E47FB87E88FDFC9001AAE0F8A3E0F92F
:10025000A3E0FAA3E0FBD31216B29001AA400A125F
:1002600016E20000EA60020ACAE0FCA3E0FDA3E097
:10027000FEA3E024A8FFEE3461FEE43DFDE43C80F3
:100280006290016BE0FEA3E0FFC390015CE09FFF82
:1002900090015BE09EFE7C007D051217139001AA81
:1002A0001216D6E47FA87E61FDFC9001AAE0F8A3B7
:1002B000E0F9A3E0FAA3E0FBD31216B29001AA4042
:1002C000091216E2000000008020E0F8A3E0F9A384
:1002D000E0FAA3E0FBC374A89BFF74619AFEE49963
:1002E000FDE498FC9001AA1216D69001AAA3A3E0FF
:1002F000FFA3E09001A8CFF0A3EFF0900211E0FE81
:10030000A3E0FF7C007D09121713ECF8EDF9EEFA7B
:10031000EFFB90016BE0FEA3E0FFE4FCFDEB2FFFA1
:10032000EA3EFEED39FDEC38FCE47B0AFAF9F812FE
:10033000160A900211EEF0A3EFF090013FE0600387
:10034000020BF7900108E0FBA3E0FAA3E0F9121416
:10035000FDFFAEF07C007D03121713ECF8EDF9EE13
:10036000FAEFFB9001A8E0FEA3E0FFE4FCFDEB2F19
:10037000FFEA3EFEED39FDEC38FCE47B04FAF9F8C7
:1003800012160A900100EEF0A3EFF0900108E0FBD6
:10039000A3E0FAA3E0F91214FDFFAEF07C007D03A8
:1003A000121713ECF8EDF9EEFAEFFB900100E0FE06
:1003B000A3E0FFE4FCFDEB2FFFEA3EFEED39FDEC90
:1003C00038FCE47B04FAF9F812160A900108E0FB05
:1003D000A3E0FAA3E0F9EE8FF0121560900100E0BF
:1003E000F9A3E0FFA3E0FBA3E0FAA3E0C98FF012BA
:1003F0001560900105E0FBA3E0FAA3E0F9E4F5F055
:1004000012156090010EE0FBA3E0FAA3E0F9E4F519
:10041000F0121560020DE2900100E0FEA3E0FF7C07
:10042000007D03121713ECF8EDF9EEFAEFFB9001E3
:10043000A8E0FEA3E0FFE4FCFDEB2FFFEA3EFEEDAB
:1004400039FDEC38FCE47B04FAF9F812160A900145
:1004500000EEF0A3EFF0A3E0FBA3E0FAA3E0F9EED7
:100460008FF0121560900108E0FBA3E0FAA3E0F919
:100470001214FDFFD39001A9E09F9001A8E095F030
:100480005003020DFF1214FDFFAEF0900102E0FBDD
:10049000A3E0FAA3E0F91214FDC39FFFE5F09EFE6E
:1004A000C3EF9517EE95165003020DFF900105E07E
:1004B000FBA3E0FAA3E0F91214FDFFAEF07C007D8F
:1004C00002121713ECC0E0EDC0E0EEC0E0EFC0E0B8
:1004D000900108E0FBA3E0FAA3E0F91214FDFFAEDF
:1004E000F0900102E0FBA3E0FAA3E0F91214FDC3CF
:1004F0009FFFE5F09EFEE4FCFDD0E0FBD0E0FAD0EB
:10050000E0F9D0E0F8EB2FFFEA3EFEED39FDEC38E4
:10051000FCE47B03FAF9F812160A900105E0FBA34C
:10052000E0FAA3E0F9EE8FF0121560900105E0FB10
:10053000A3E0FAA3E0F91214FDD39430E5F094752A
:100540004008747575F030121560900184E07003F6
:10055000020DE2900188E0FEA3E0FFD39400EE9448
:10056000005003020DE2900105E0FBA3E0FAA3E0D6
:10057000F91214FDC39FFFE5F09EFE123E6190014B
:10058000AEEEF0A3EFF0900105E0FBA3E0FAA3E0EC
:10059000F91214FDFFC3900189E09F900188E09556
:1005A000F050209001AFE0940A9001AEE09400403A
:1005B00012900108E0FBA3E0FAA3E0F9E475F0056E
:1005C000121528900105E0FBA3E0FAA3E0F912144C
:1005D000FDFFD3900189E09F900188E095F04022D3
:1005E000D39001AFE0940A9001AEE09400401390E4
:1005F0000108E0FBA3E0FAA3E0F974FF75F0FB1239
:100600001528200B1AC3900214E09414900213E0F2
:100610009400500B9000F1E0642070030208DB901E
:100620000183E004F090018C1216E200000000E467
:10063000900190F0A3F0A3F0A3F09001D31216E282
:10064000000000009001E11216E200000000123EDE
:1006500045123C6D229001AAEFF0A3ECF0A3EDF05F
:10066000EFC454F0240BF582E43402F583E0FEA3DA
:10067000E0C39DFFEE9CFE123E61D3EF9428EE6432
:10068000809480406C9001AAE0FBC454F02401F5F2
:1006900082E43402F5831216E200000000EBC45439
:1006A000F02405F582E43402F583E4F0A3F0900130
:1006B000AAE0FFC454F02409F582E43402F583E48F
:1006C000F0A3F0EFC454F0240EF582E43402F58375
:1006D000E4F09001ABE0FEA3E0FF9001AAE0C45477
:1006E000F0240BF582E43402F583EEF0A3EFF08002
:1006F0006C9001AAE0C454F02407F582E43402F5BA
:1007000083E0FEA3E0FFD39400EE9400404F9001FD
:10071000ABE0FCA3E0FDD3EF9DEE9C40149001AA5A
:10072000E0C454F0240EF582E43402F583E0440181
:10073000F09001AAE0FFC454F02407F582E43402EB
:10074000F583E0FAA3E0C39DEA9C5011EFC454F096
:10075000240EF582E43402F583E04402F09001AA0D
:10076000E0C454F02401F582E43402F583C083C070
:1007700082E0F8A3E0F9A3E0FAA3E0FB9001ABE08C
:10078000FEA3E0FFE4FCFDEB2FFFEA3EFEED39FDAA
:10079000EC38FCD082D0831216D69001AAE0FFC4B8
:1007A00054F02405F582E43402F583E475F0011277
:1007B00014E7EF75F007A42408F582E43408F58304
:1007C000E493FE740193FF9001AAE0FDC454F02469
:1007D00009F582E43402F583E0FAA3E0C39FEA9EC0
:1007E0005003021280EDC454F02405F582E4340273
:1007F000F583E0FEA3E0FBEEFAE4F9F89001AAE04D
:10080000C454F02401F582E43402F583E0FCA3E053
:10081000FDA3E0FEA3E0FF12160A9001AD1216D66A
:100820009001ADA3A3E0FEA3E0FF9001AAE0C454B1
:10083000F02407F582E43402F583E0FCA3E0C39FD3
:10084000FFEC9EFE123E619001B1EEF0A3EFF0903E
:1008500001AAE0FD75F007A42403F582E43408F54D
:1008600083C37401939FE4939E4031EDC454F024FC
:1008700007F582E43402F583E0FEA3E04E601D90AC
:1008800001AAE0FBC454F0240FF582E43402F5839E
:10089000E0FEA3E0C394B8EE940B50479001AAE0A9
:1008A000FFC454F02407F582E43402F583E0FCA38E
:1008B000E04C7011EFC454F0240FF582E43402F5DB
:1008C00083E4F0A3F09001ADA3A3E0FEA3E0FF90CA
:1008D00001AAE0C454F02407F582E43402F583EE63
:1008E0000211A3EB60030211A99001B3F09001B1D2
:1008F000E0FEA3E0FFD39450EE94004006A37408FA
:10090000F0803B9001AAE0C454F0240EF582E43458
:1009100002F583E064036026D3EF943CEE9400403C
:10092000089001B37404F08015D39001B2E09428CC
:100930009001B1E0940040069001B37402F0900180
:10094000AAE0C454F02407F582E43402F583E0FE03
:10095000A3E0FFE4FCFD9001ADE0F8A3E0F9A3E023
:10096000FAA3E0FBD31216B2401E9001B3E0FF9051
:1009700001AAE0C454F02407F582E43402F583E4CC
:100980008FF01214E7021214D39001B2E094509049
:1009900001B1E0940050030212149001AAE0C45483
:1009A000F02407F582E43402F583C083C082E0FEC0
:1009B000A3E0FF9001B3E0FDC3EF9DFFEE9400D0F4
:1009C00082D083F0A3EFF0806B9001AAE0C454F0D2
:1009D0002407F582E43402F583E0FEA3E0FF4E70C5
:1009E000169001ADE0F8A3E0F9A3E0FAA3E0FFEA76
:1009F000FEE9FDE8FC80287C007D071217139001BA
:100A0000ADE0F8A3E0F9A3E0FAA3E02FFFEA3EFE91
:100A1000E93DFDE83CFCE47B08FAF9F812160A907F
:100A200001AAE0C454F02407F582E43402F583EE11
:100A3000F0A3EFF09001AAE0FBC454F02401F5828A
:100A4000E43402F5831216E200000000EBC454F017
:100A50002405F582E43402F583E4F0A3F09001AAC2
:100A6000E0FFC454F02409F582E43402F583E4F095
:100A7000A3F0EFC454F0240EF582E43402F583E4CD
:100A8000F09001ADA3A3E0FEA3E0FF9001AAE0C4B3
:100A900054F0240BF582E43402F583EEF0A3EFF07A
:100AA0009001AAE0C454F02407F582E43402F583EF
:100AB000E0FEA3E0FFD39400EE9400500302134B3A
:100AC0009001ACE09FFF9001ABE09EFE123E619072
:100AD00001AAE075F007A42405F582E43408F58343
:100AE000D37401939FE4939E402E9001AAE0FFC42B
:100AF00054F02407F582E43402F583E0FDA3E0908E
:100B000001ABCDF0A3EDF0EFC454F0240DF582E479
:100B10003402F583E4F080539001AAE0FF75F007FA
:100B2000A42407F582E43408F583E493FEEFC4546B
:100B3000F0240DF582E43402F583E0C39E502C903E
:100B400001AAE0C454F02407F582E43402F583E0FE
:100B5000FDA3E09001ABCDF0A3EDF0EFC454F02481
:100B60000DF582E43402F583E004F09001ABE0FE81
:100B7000A3E0FF22E709F608DFFA8046E709F2085A
:100B8000DFFA803E88828C83E709F0A3DFFA8032A7
:100B9000E309F608DFFA8078E309F208DFFA8070EB
:100BA00088828C83E309F0A3DFFA806489828A83D8
:100BB000E0A3F608DFFA805889828A83E0A3F2086E
:100BC000DFFA804C80D280FA80C680D4806980F2BF
:100BD0008033801080A680EA809A80A880DA80E244
:100BE00080CA803389828A83ECFAE493A3C8C582E1
:100BF000C8CCC583CCF0A3C8C582C8CCC583CCDF24
:100C0000E9DEE7800D89828A83E493A3F608DFF9A1
:100C1000ECFAA9F0EDFB2289828A83ECFAE0A3C802
:100C2000C582C8CCC583CCF0A3C8C582C8CCC58357
:100C3000CCDFEADEE880DB89828A83E493A3F208D2
:100C4000DFF980CC88F0EF60010E4E60C388F0EDD4
:100C50002402B4040050B9F582EB2402B40400501D
:100C6000AF23234582239013A473EF8DF0A4A8F043
:100C7000CF8CF0A428CE8DF0A42EFE22BC000BBE9B
:100C80000029EF8DF084FFADF022E4CCF875F00878
:100C9000EF2FFFEE33FEEC33FCEE9DEC984005FCAD
:100CA000EE9DFE0FD5F0E9E4CEFD22EDF8F5F0EE75
:100CB0008420D21CFEADF075F008EF2FFFED33FD60
:100CC0004007985006D5F0F222C398FD0FD5F0EA00
:100CD00022C2D5EC30E709B2D5E4C39DFDE49CFC0B
:100CE000EE30E715B2D5E4C39FFFE49EFE12145C1C
:100CF000C3E49DFDE49CFC800312145C30D507C363
:100D0000E49FFFE49EFE22C5F0F8A3E028F0C5F0C2
:100D1000F8E582158270021583E038F022BB010AE3
:100D200089828A83E0F5F0A3E022500687F009E784
:100D30001922BBFE07E3F5F009E3192289828A83B1
:100D4000E493F5F074019322BB010789828A830240
:100D500014E7500B09C5F027F7C5F01937F722BB88
:100D6000FE0D09F8E325F0F3C5F019E338F322F896
:100D700089828A8374019325F0C5F0F8E4933822C0
:100D8000BB010A89828A83F0E5F0A3F0225006F7BE
:100D900009A7F01922BBFE06F3E5F009F31922E8D2
:100DA0008FF0A4CC8BF0A42CFCE98EF0A42CFC8A50
:100DB000F0EDA42CFCEA8EF0A4CDA8F08BF0A42DCD
:100DC000CC3825F0FDE98FF0A42CCD35F0FCEB8E6E
:100DD000F0A4FEA9F0EB8FF0A4CFC5F02ECD39FE24
:100DE000E43CFCEAA42DCE35F0FDE43CFC2275F099
:100DF00008758200EF2FFFEE33FECD33CDCC33CC20
:100E0000C58233C5829BED9AEC99E58298400CF53A
:100E100082EE9BFEED9AFDEC99FC0FD5F0D6E4CE68
:100E2000FBE4CDFAE4CCF9A88222B800C1B900599C
:100E3000BA002DEC8BF084CFCECDFCE5F0CBF97869
:100E400018EF2FFFEE33FEED33FDEC33FCEB33FBFD
:100E500010D703994004EB99FB0FD8E5E4F9FA2287
:100E60007818EF2FFFEE33FEED33FDEC33FCC93382
:100E7000C910D7059BE99A4007EC9BFCE99AF90F4A
:100E8000D8E0E4C9FAE4CCFB2275F010EF2FFFEEB6
:100E900033FEED33FDCC33CCC833C810D7079BEC01
:100EA0009AE899400AED9BFDEC9AFCE899F80FD579
:100EB000F0DAE4CDFBE4CCFAE4C8F922EB9FF5F0DC
:100EC000EA9E42F0E99D42F0EC6480C86480984557
:100ED000F022EB9FF5F0EA9E42F0E99D42F0E89C9B
:100EE00045F022E8600FECC313FCED13FDEE13FE9A
:100EF000EF13FFD8F122ECF0A3EDF0A3EEF0A3EF97
:100F0000F022A8828583F0D083D0821216F91216BF
:100F1000F91216F91216F9E473E493A3C583C5F028
:100F2000C583C8C582C8F0A3C583C5F0C583C8C53D
:100F300082C822EC8EF0A4CCC5F0CCCDF8EFA4CEC4
:100F4000C5F02DFDE43CFCE8A42EC8C5F03DFDE451
:100F50003CFCEFA4FFE5F028FEE43DFDE43CFC2270
:100F6000EF4E6012EF60010EEDBB010B89828A83A8
:100F7000F0A3DFFCDEFA2289F05007F709DFFCA9B5
:100F8000F022BBFEFCF309DFFCA9F022D39001EDB7
:100F9000E094009001ECE094004003021B4A9001B1
:100FA00008E0FBA3E0FAA3E0F91214FDFFAEF09015
:100FB0000102E0FBA3E0FAA3E0F91214FDFDACF09E
:100FC000D39FEC9E4054900108E0FBA3E0FAA3E01D
:100FD000F91214FDFFC3ED9FFFEC95F0FED3EF94E3
:100FE00030EE9475400C9001A87475F0A37430F045
:100FF00080211214FDFFAEF0900102E0FBA3E0FAA5
:10100000A3E0F91214FDC39FFFE5F09E9001A8F044
:10101000A3EFF0E49001A2021889900102E0FBA383
:10102000E0FAA3E0F91214FDFFAEF0900108E0FB36
:10103000A3E0FAA3E0F91214FDFDACF0C39FFFECAE
:101040009EFED3EF9410EE9427400C9001A87427D5
:10105000F0A37410F0801D900102E0FBA3E0FAA35E
:10106000E0F91214FDFFC3ED9FFEEC95F09001A88E
:10107000F0A3CEF09001A8E0FFA3E09001A2CFF092
:10108000A3EFF0300018D3E0942C9001A2E094017B
:1010900040139001A47427F0A37410F08007E4902B
:1010A00001A4F0A3F0E49001A8F0A3F090013FE0C8
:1010B000605B9001A8E0FEA3E0FFD39400EE6480A3
:1010C00094804014D3EF9509EE9508400B9001F2FF
:1010D000E4F0A37464F08027D39001F3E0940090CF
:1010E00001F2E094004018900105E0FBA3E0FAA3B0
:1010F000E0F91214FDFF9001A8E5F0F0A3EFF0D2A3
:10110000089001F8740FF0A374A0F0800F9001F61E
:101110007403F0A374E8F0E4FF123BECD39001A950
:10112000E094009001A8E0648094805003021AF5D6
:10113000E0F9A3E0FF900105E0FBA3E0FAA3E0C91A
:101140008FF01215609001A8E0FEA3E0FFEE33954A
:10115000E0FDFCE47BB87A88F9F8C312169C500ACB
:101160009001A87488F0A374B8F0D39001F5E094CE
:10117000009001F4E0940050089000F1E0642070C9
:10118000229001A8E0FEA3E0FFC39464EE64809483
:10119000805010EF9400EE6480948040447C007D89
:1011A0000A803330003B90013FE070169001A8E0C8
:1011B000FEA3E0FFC39517EE951650257C027DBC7B
:1011C00080149001A8E0FEA3E0FFC39509EE950806
:1011D000500F7C027DBC1214B19001A8EEF0A3EF79
:1011E000F090013FE07003021A6B9001F6E070028C
:1011F000A3E070199001A8E0FEA3E0FDEEFCE4FF7F
:10120000120E359001A8EEF0A3EFF0803E9001A8F9
:10121000E0FEA3E0FFC3900136E09FFF900135E0C0
:101220009EFE123E61D3EF9428EE64809480401BB2
:10123000D39001F7E094C89001F6E09400400CA32D
:10124000E0249CF09001F6E034FFF0900135E0FEE0
:10125000A3E0FF7C007D07121713ECF8EDF9EEFA1E
:10126000EFFB9001A8E0FEA3E0FFEE3395E0FDFC6C
:10127000EB2FFFEA3EFEE93DFDE83CFCE47B08FA8B
:10128000F9F812160A900135EE800B9001A8E0FFE4
:10129000A3E0900135CFF0A3EFF0900135E0FEA37D
:1012A000E0FFD39405EE9400400EEF9410EE94000E
:1012B00050069001A8EE8016900131E0FEA3E0FFF9
:1012C000900136E02FFF900135E03E9001A8F0A399
:1012D000EFF0D39001A9E094309001A8E0648094ED
:1012E000F540077475F0A37430F0E5DB5404707AB0
:1012F0009001A8E0F9A3E0FF90010EE0FBA3E0FA63
:10130000A3E0C98FF01215609001A9E024A8FF9016
:1013100001A8E08042E5DB5404704F900105E0FB3A
:10132000A3E0FAA3E0F9E4F5F0121560900131E0D2
:10133000F9A3E0FF90010EE0FBA3E0FAA3E0C98F60
:10134000F012156090010EE0FBA3E0FAA3E0F912A1
:1013500014FD24A8FFE5F03461F990010BE0FBA334
:10136000E0FAA3E0C98FF0121560229001BDECF005
:10137000A3EDF09001BCEFF075F00EA424D7F58238
:10138000E43401F583E0704E9001BCE075F00EA4EA
:1013900024D3F582E43401F583E0FCA3E0FDA3E06F
:1013A000FEA3E0FFE4FBFAF9F8C31216B26027903F
:1013B00001BCE075F00EA424CFF582E43401F5837E
:1013C000E0FCA3E0FDA3E0FEA3E0FFE4F8C31216F7
:1013D000B26003021CC79001BFA3A3E0FEA3E0FF1D
:1013E000C39001BEE09FFF9001BDE09EFE123E61F2
:1013F0009001BCE0FD75F00EA424D8F582E4340120
:10140000F583EEF0A3EFF0ED75F00EA424D7F5828E
:10141000E43401F583E06041ED75F005A424D9F5CD
:1014200082E4342DF583E493FE740193FFED75F0AF
:101430000EA424D8F582E43401F583E0FCA3E0D3C4
:101440009FEC9E40149001BCE075F00EA424D7F5EB
:1014500082E43401F5837405F09001BFE0FCA3E061
:10146000FDA3E0FEA3E0FF9001BCE0FB75F00EA43D
:1014700024D3F582E43401F5831216D6EB75F00E11
:10148000A424DBF582E43401F583E0FEA3E0FFE46D
:10149000FCFD9001BFE0F8A3E0F9A3E0FAA3E0FBB4
:1014A00012157F9001BCE0FB75F00EA424CFF582ED
:1014B000E43401F5831216D6EB75F00EA424D7F5AB
:1014C00082E43401F583E0D3940074809480401169
:1014D000EB75F00EA424D7F582E43401F583E01413
:1014E000F09001BF021F0F9001BCE0FB75F00EA44D
:1014F00024D3F582E43401F583E0FCA3E0FDA3E00E
:10150000FEA3E0FF9001C31216D6EB75F00EA424E3
:10151000CFF582E43401F583E0FCA3E0FDA3E0FE17
:10152000A3E0FF9001C71216D69001C7E0FCA3E02C
:10153000FDA3E0FEA3E0FF9001BCE075F00EA42443
:10154000DAF582E43401F583E0F9F81216C3EFFB13
:10155000EEFAEDF9ECF89001C7E0FCA3E0FDA3E0A2
:10156000FEA3E0C39BFFEE9AFEED99FDEC98FCA371
:101570001216D69001C3E0FCA3E0FDA3E0FEA3E0B9
:10158000FF9001BFE0F8A3E0F9A3E0FAA3E02FFF8A
:10159000EA3EFEE93DFDE83CFC9001CBE0F8A3E02B
:1015A000F9A3E0FAA3E02FFFEA3EFEE93DFDE83CA7
:1015B000FC9001C71216D69001BFE0FCA3E0FDA38A
:1015C000E0FEA3E0FF9001BCE0FB75F00EA424D385
:1015D000F582E43401F5831216D69001C7E0FCA32E
:1015E000E0FDA3E0FEA3E0FFEB75F00EA424CFF531
:1015F00082E43401F5831216D69001C7E0FCA3E023
:10160000FDA3E0FEA3E0FFECC0E0EDC0E0EEC0E033
:10161000EFC0E09001BCE075F00EA424DBF582E49D
:101620003401F583E0FEA3E0FBEEFAE4F9F8D0E044
:10163000FFD0E0FED0E0FDD0E0FC12160A9001C71A
:101640001216D69001BFA3A3E0FEA3E0FBEEFA9032
:1016500001C7A3A3E0FEA3E0C39BFFEE9AFE123EE8
:10166000619001BCE0FD75F00EA424D8F582E4344D
:1016700001F583EEF0A3EFF0ED75F005A424D7F5A6
:1016800082E4342DF583E493FE740193FFED75F04D
:101690000EA424D8F582E43401F583E0FCA3E0D362
:1016A0009FEC9E5003021F0C9001BFE0FCA3E0FDE5
:1016B000A3E0FEA3E0FF9001BCE0FB75F00EA424C4
:1016C000D3F582E43401F5831216D6EB75F00EA43F
:1016D00024DBF582E43401F583E0FEA3E0FFE4FCC3
:1016E000FD9001BFE0F8A3E0F9A3E0FAA3E0FB124C
:1016F000157F9001BCE0FB75F00EA424CFF582E4C9
:101700003401F5831216D6EB75F00EA424D7F582BA
:10171000E43401F5837405F09001BFE0FCA3E0FD23
:10172000A3E0FEA3E0FF9001C71216D69001C7A365
:10173000A3E0FEA3E0FF2212336090018CE0F8A347
:10174000E0F9A3E0FAA3E0FBE8C0E0E9C0E0EAC00A
:10175000E0EBC0E090011DE0FBA3E0FAA3E0F9128A
:1017600014FDFFE4FCFDD0E0FBD0E0FAD0E0F9D0BE
:10177000E0F8EB2FFFEA35F0FEED39FDEC38FC9098
:10178000018C1216D6900191E004F0700690019041
:10179000E004F0C3900193E09464900192E094001F
:1017A00050030222DF90018CE0FCA3E0FDA3E0FEE9
:1017B000A3E0FFECC0E0EDC0E0EEC0E0EFC0E0A3CE
:1017C000E0FEA3E0FBEEFAE4F9F8D0E0FFD0E0FEA3
:1017D000D0E0FDD0E0FC12160A90018C1216D690D3
:1017E000018CA3A3E0FFA3E090018ACFF0A3EFF068
:1017F000A31216E200000000E4900190F0A3F0A311
:10180000F0A3F09001ECE07002A3E060030222DF9D
:10181000900194E07002A3E060030222DF90013F98
:10182000E070030220C9900186E0FEA3E0FF4E7045
:101830003490018AE0FDA3E0900186CDF0A3EDF0A5
:10184000900105E0FBA3E0FAA3E0F91214FDFD907E
:101850000188E5F0F0A3EDF09001967403F0A37415
:10186000E8F00220E290018AE0FCA3E0FDC3EF9DD6
:10187000FFEE9CFE123E6190019CE0FBA3E0FAA308
:10188000E0F9EE8FF0121560900184E0703790015E
:101890009CE0FBA3E0FAA3E0F91214FDC39406E573
:1018A000F09400501A900105E0FBA3E0FAA3E0F9E0
:1018B0001214FDFF900188E5F0F0A3EFF080069090
:1018C00001847401F090018AE0FEA3E0FFD390014F
:1018D00087E09F900186E09E4007E4900185F080BC
:1018E000219001857401F08019E4900186F0A3F045
:1018F000A3F0A3F0900184F0900198F0A3F0A3F07E
:10190000A3F0900184E070030222DF900188E0FEE2
:10191000A3E0FFD39400EE940050030222DF900175
:1019200005E0FBA3E0FAA3E0F91214FDC39FFFE575
:10193000F09EFE123E619001A8EEF0A3EFF0A3E44A
:10194000F0A374C8F0900105E0FBA3E0FAA3E0F96E
:101950001214FDD39494E5F09411400A9001AA74F6
:1019600003F0A37420F09001A8E0FFA3E09001A091
:10197000CFF0A3EFF0900105E0FBA3E0FAA3E0F9BC
:101980001214FDFFAEF0900188E0FCA3E0FDD39FB0
:10199000EC9E400FD39001A9E094649001A8E094DC
:1019A000005015C3ED9FEC9E504E9001A9E094C8E5
:1019B0009001A8E094004040E4900184F0900186FA
:1019C000F0A3F0900105E0FBA3E0FAA3E0F9121404
:1019D000FDFFC3900189E09F900188E095F09001A0
:1019E000945008E4F0A374C8F080077401F0A37465
:1019F0002CF0E4900185F022900105E0FBA3E0FAD1
:101A0000A3E0F91214FDFFAEF0D3900189E09F909E
:101A10000188E09E4073D39001A9E0941E9001A834
:101A2000E09400406490019BE094C890019AE09497
:101A3000005056C3EF9490EE9401404D900108E0A1
:101A4000FBA3E0FAA3E0F974FF75F0FB12152890F0
:101A5000019BE02405F090019AE03400F090019899
:101A6000E0FEA3E0FFC394E8EE9403501CEF94055E
:101A7000EE9400400DE024FBF0900198E034FFF07C
:101A80008007E4900198F0A3F0900105E0FBA3E04B
:101A9000FAA3E0F91214FDFFC3900189E09F9001C1
:101AA00088E095F050599001A9E0941E9001A8E0BB
:101AB0009400404B900108E0FBA3E0FAA3E0F9E4B6
:101AC00075F005121528900199E02405F090019811
:101AD000E03400F090019AE0FEA3E0FFC394C8EE6A
:101AE0009400501BEF9405EE9400400CE024FBF0B2
:101AF00090019AE034FFF022E490019AF0A3F022E2
:101B00007F01123AB3123CE0758A50902E2074196E
:101B1000F0902E20E030E2F9903E76E49375F002EA
:101B2000A42400F582E5F0342EF583E0FFA3E090D5
:101B300001B6CFF0A3EFF0902E20E4F0758A107F6D
:101B400001123D12900161E0FEA3E0FF4E700E9085
:101B500001B6E0FCA3E0FDECFEEDFF801E7C007D05
:101B60000312144A9001B7E02FFF9001B6E03EFE49
:101B70007802EFCEC313CE13D8F9FF900161EEF0D7
:101B8000A3EFF090015DE07002A3E0700F9001619F
:101B9000E0FFA3E090015DCFF0A3EFF09001B81259
:101BA00016E200002710E4FF123AB3E49001B3F00C
:101BB0009001B3E0C394097480948040030224AC84
:101BC000E4FF123CE0758A50902E207419F0902E9C
:101BD00020E030E2F9903E75E49375F002A4240011
:101BE000F582E5F0342EF583E0FFA3E09001B4CF59
:101BF000F0A3EFF0902E20E4F0758A10FF123D1252
:101C00009001B4E0FEA3E0FF90016DEEF0A3EFF0D1
:101C100090015DE0FCA3E0FDEF2DFFEE3CFE9001A6
:101C200061E0FCA3E0FDC3EF9DFFEE9C9001B4F0EA
:101C3000A3EFF090015FE0FEA3E0FF4E700E900175
:101C4000B4E0FCA3E0FDECFEEDFF801E7802EFC3E4
:101C500033CE33CED8F9FF9001B5E02FFF9001B419
:101C6000E03EFE7C007D0512145C90015FEEF0A367
:101C7000EFF0E4FCFD9001BF1216D6900163E0FC8A
:101C8000A3E0FDE4FF121B4B900163EEF0A3EFF025
:101C90009001B8E0F8A3E0F9A3E0FAA3E0FB90011B
:101CA00063E0FEA3E02400FFEE34F8FE3395E0FD90
:101CB000FCEB2FFFEA3EFEE93DFDE83CFC9001B85D
:101CC0001216D69001B3E004F0022390902E23E484
:101CD000F07F507EC3FDFC9001B8E0F8A3E0F9A3CB
:101CE000E0FAA3E0FBD312169C400A9001B812164A
:101CF000E20000C3509001B8E0FCA3E0FDA3E0FEC9
:101D0000A3E0FFEC33500A9001B81216E200000085
:101D100000900169E0FAA3E0FB4A700C9001B8A3BF
:101D2000A3E0FEA3E0FF80347E007F02EBFDEAFC2F
:101D3000121713ECF8EDF9EEFAEFFB9001B8E0FCA6
:101D4000A3E0FDA3E0FEA3E02BFFEA3EFEE93DFD9C
:101D5000E83CFCE47B03FAF9F812160A900169EEFC
:101D6000F0A3EFF090015BE07002A3E0700F900130
:101D700069E0FFA3E090015BCFF0A3EFF0900127B3
:101D8000E0F8A3E0F9A3E0FAA3E0FB900163E0FE32
:101D9000A3E0FFE4FCFDEB2FFFEA3EFEED39FDEC96
:101DA00038FC9001271216D690012CE004F0700642
:101DB00090012BE004F090012BE0FEA3E0FFD39410
:101DC0000AEE94004031EFFBEEFAE4F9F8900127B7
:101DD000E0FCA3E0FDA3E0FEA3E0FF12160A9001E1
:101DE00025EEF0A3EFF0E490012BF0A3F090012793
:101DF0001216E20000000090012DE07002A3E070D6
:101E000040900125E0FEA3E0FFC3900164E09FFF46
:101E1000900163E09EFE123E61900123EEF0A3EF7D
:101E2000F0D39406EE9400401890012D7403F0A3B3
:101E300074E8F0900130E004F0700690012FE004A7
:101E4000F0900169E0FEA3E0FF229001A87403F086
:101E5000A37420F0D39001A7E094009001A6E09431
:101E6000004021900102E0FBA3E0FAA3E0F9121484
:101E7000FDFF900108E0FBA3E0FAA3E0F9E5F08F95
:101E8000F01215609001ECE07002A3E0600B90018D
:101E9000A8E4F0A37464F0800B90001AE064117061
:101EA000037420F090013FE0600F7E007F0C7D0006
:101EB0007B017A017940021740900140E0F8A3E0ED
:101EC000F9A3E0FAA3E0FBE8C0E0E9C0E0EAC0E083
:101ED000EBC0E0900102E0FBA3E0FAA3E0F91214EA
:101EE000FDFFE4FCFDD0E0FBD0E0FAD0E0F9D0E06B
:101EF000F8EB2FFFEA35F0FEED39FDEC38FC9001F0
:101F0000401216D6900145E004F07006900144E0BE
:101F100004F09001A8E0FEA3E0FFC390014BE09F16
:101F200090014AE09E5003022865900140E0FCA326
:101F3000E0FDA3E0FEA3E0FFECC0E0EDC0E0EEC0FA
:101F4000E0EFC0E0A3E0FEA3E0FBEEFAE4F9F8D096
:101F5000E0FFD0E0FED0E0FDD0E0FC12160A9001D8
:101F6000401216D6900108E0FBA3E0FAA3E0F912B4
:101F700014FD241EFFE435F0FEE4FCFD900140E07A
:101F8000F8A3E0F9A3E0FAA3E0FBD31216B25003E2
:101F900002282B9001ECE07002A3E0600302282BE2
:101FA00030080302282B900108E0FBA3E0FAA3E02D
:101FB000F91214FDFB900140A3A3E0FEA3E0C39B34
:101FC000FFEE95F09001AAF0A3EFF0900147E00436
:101FD000F07006900146E004F0D3900147E09401D0
:101FE000900146E0940040229001AAE0FEA3E0FFA9
:101FF000900149E09F900148E09E500E900147E01B
:1020000024FFF0900146E034FFF09001AAE0FFA326
:10201000E0900148CFF0A3EFF0D3900147E09405A2
:10202000900146E094004046900140A3A3E0F9A34C
:10203000E0FF900108E0FBA3E0FAA3E0C98FF012F3
:102040001560E4900146F0A3F08023900140A3A323
:10205000E0F9A3E0FF900108E0FBA3E0FAA3E0C9E8
:102060008FF0121560E4900146F0A3F0C2089001D1
:10207000401216E200000000E4900144F0A3F0904A
:10208000014AF0A3F022C0E0C083C082C0D0D2AF2A
:10209000D39001EDE094009001ECE09400400CA39B
:1020A000E024FFF09001ECE034FFF0D39001F1E088
:1020B00094009001F0E09400400EA3E024FFF09023
:1020C00001F0E034FFF08002D28AD39001EFE09477
:1020D000009001EEE09400400CA3E024FFF090019A
:1020E000EEE034FFF0C390014BE0942090014AE011
:1020F0009403500CA3E004F0700690014AE004F051
:10210000D39001F3E094009001F2E09400400CA31E
:10211000E024FFF09001F2E034FFF0D39001F5E00D
:1021200094009001F4E09400400CA3E024FFF090B0
:1021300001F4E034FFF0D39001FBE094009001FA49
:10214000E09400400CA3E024FFF09001FAE034FF9B
:10215000F0D39001F7E094009001F6E09400400C79
:10216000A3E024FFF09001F6E034FFF0D39001F9F2
:10217000E094009001F8E09400400CA3E024FFF00C
:102180009001F8E034FFF0D39001A5E094009001B5
:10219000A4E09400400CA3E024FFF09001A4E034FC
:1021A000FFF0D39001FDE094009001FCE09400402A
:1021B0000CA3E024FFF09001FCE034FFF0C3900199
:1021C00093E09464900192E09400500CA3E004F03A
:1021D0007006900192E004F0D3900195E094009095
:1021E0000194E09400400CA3E024FFF0900194E0FF
:1021F00034FFF0D3900197E09401900196E09400B1
:10220000400CA3E024FFF0900196E034FFF0D3905F
:102210000172E09401900171E09400400CA3E0246D
:10222000FFF0900171E034FFF0D39001A7E094003B
:102230009001A6E09400400CA3E024FFF09001A6DA
:10224000E034FFF0C3900210E094B890020FE094E5
:102250000B500CA3E004F0700690020FE004F0C3F2
:1022600090020AE094F4900209E09401500CA3E07B
:1022700004F07006900209E004F0D390012EE0947F
:102280000090012DE09400400CA3E024FFF09001A9
:102290002DE034FFF0D0D0D082D083D0E032D39084
:1022A00001EDE09F9001ECE09E400AA3E09FF090DA
:1022B00001ECE09EF0D39001F1E09F9001F0E09EF0
:1022C000400CA3E09FF09001F0E09EF08002D28AE3
:1022D000D39001EFE09F9001EEE09E400AA3E09FC3
:1022E000F09001EEE09EF0C390014BE0942090014D
:1022F0004AE09403500AA3E02FF090014AE03EF038
:10230000D39001F3E09F9001F2E09E400AA3E09F8A
:10231000F09001F2E09EF0D39001F5E09F9001F47F
:10232000E09E400AA3E09FF09001F4E09EF0D3907D
:1023300001FBE09F9001FAE09E400AA3E09FF0902D
:1023400001FAE09EF0D39001F7E09F9001F6E09E45
:10235000400AA3E09FF09001F6E09EF0D39001F9CF
:10236000E09F9001F8E09E400AA3E09FF09001F802
:10237000E09EF0D39001A5E09F9001A4E09E400A6A
:10238000A3E09FF09001A4E09EF0D39001FDE09FB8
:102390009001FCE09E400AA3E09FF09001FCE09ECB
:1023A000F0C3900193E09464900192E09400500A8D
:1023B000A3E02FF0900192E03EF0D3900195E09FD2
:1023C000900194E09E400AA3E09FF0900194E09E6B
:1023D000F0EF2401FDE43EFCD3900197E09D9001D5
:1023E00096E09C400AA3E09FF0900196E09EF0EFFB
:1023F0002401FDE43EFCD3900172E09D900171E068
:102400009C400AA3E09FF0900171E09EF0D3900100
:10241000A7E09F9001A6E09E400AA3E09FF09001F4
:10242000A6E09EF0C3900210E094B890020FE094F2
:102430000B500AA3E02FF090020FE03EF0C3900291
:102440000AE094F4900209E09401500AA3E02FF00E
:10245000900209E03EF0D390012EE09F90012DE024
:102460009E400AA3E09FF090012DE09EF0227E00A6
:102470007FFF7D007B017A0079001217407E007F8C
:10248000A87D007B017A0179001217407E007F143D
:102490007D007B017A0179EB121740902DE0E493E7
:1024A000900001F09000047411F0A37422F0A37462
:1024B00033F0902DE2E493900012F0902DE3E4933A
:1024C000900014F09000FB7401F09000367410F04E
:1024D0009000F1F0900024F0A37420F090010274B9
:1024E00001F0A37400F0A37440F09001087401F0AF
:1024F000A37400F0A37444F09001057401F0A37478
:1025000000F0A37442F090010B7401F0A37400F08A
:10251000A3742EF0A37401F0A37400F0A3742AF046
:10252000A37401F0A37400F0A37428F09001207448
:1025300001F0A37400F0A37490F090011D7401F0F9
:10254000A37400F0A37422F090019C7401F0A374B2
:1025500000F0A37480F090013C7401F0A37400F0CB
:10256000A37418F09001397401F0A37400F0A374FF
:102570001BF09001147401F0A37400F0A37432F006
:10258000A37401F0A37400F0A37426F0A37401F007
:10259000A37400F0A37434F0900114E0FBA3E0FAFC
:1025A000A3E0F9E475F0C8121560900117E0FBA3F1
:1025B000E0FAA3E0F9E475F06412156090011AE006
:1025C000FBA3E0FAA3E0F9E475F096121560751626
:1025D000007517C87508007509969001EC7407F02E
:1025E000A374D0F0E49001EBF0227827E6FF2400FA
:1025F000F582E434002204001E0014050028001EA9
:102600000402AB9074AA7583F5758255A57455754F
:1026100083FA7582AAA574A57583F5758255A522DE
:1026200002010AB00BB60CFF090208FF0DF70E03FA
:102630001307141010800192120710080F040404ED
:10264000010111151512141403024090017DE0FEE2
:10265000A3E0FFC39404EE9400502F900100E0FC2F
:10266000A3E0FDEF25E0FFEE33FE74752FF58274D5
:10267000013EF583ECF0A3EDF090017EE004F070F4
:102680000690017DE004F0022F329001B57401F054
:102690009001B5E0FFC3940474809480502AEF2524
:1026A000E02475F582E43401F583E0FCA3E0FDEF5E
:1026B00025E02473F582E43401F583ECF0A3EDF01A
:1026C0009001B5E004F080C890013FE060028073A3
:1026D000900102E0FBA3E0FAA3E0F91214FDFF90E1
:1026E0000100E0FCA3E0FDC3EF9DFFE5F09CFE12BE
:1026F0003E61C3EF9428EE648094805046900108B8
:10270000E0FBA3E0FAA3E0F91214FDFFC39001017E
:10271000E09FFF900100E095F0FE123E61C3EF9450
:1027200014EE6480948050059001088003900102AB
:10273000E0FBA3E0FAA3E0F91214FDFF90017BE5B2
:10274000F0800B900100E0FFA3E090017BCFF0A3AD
:10275000EFF09001B11216E200000000E49001B524
:10276000F09001B5E0FFD390017EE09F90017DE005
:102770009400403D9001B1E0F8A3E0F9A3E0FAA392
:10278000E0FBA3E025E02475F582E43401F583E065
:10279000FEA3E0FFE4FCFDEB2FFFEA3EFEED39FD7A
:1027A000EC38FC9001B11216D69001B5E004F0802F
:1027B000B09001B1E0FCA3E0FDA3E0FEA3E0FFECDC
:1027C000C0E0EDC0E0EEC0E0EFC0E090017DE0FED3
:1027D000A3E0FBEEFAE4F9F8D0E0FFD0E0FED0E0B1
:1027E000FDD0E0FC12160A9001B11216D69001B18C
:1027F000A3A3E0FEA3E0FF229001ABEFF0902E2216
:10280000E0FF9001AFE4F0A3EFF0758A50902E2224
:102810007401F09001ABE075F002A42410F582E59C
:10282000F0342EF5837402F0A3E4F09001ACF09044
:1028300001ACE0FFC3940C748094804003023142E9
:10284000EFF87E01E4088006CEA2E713CE13D8F895
:10285000FF9001ADEEF0A3EFF04E70079001ADF0E8
:10286000A304F0902E207419F0902E20E030E2F9AD
:102870009001ABE0FF75F002A42400F582E5F0348E
:102880002EF583E0FCA3E0D394FFEC940740597548
:10289000F002EFA42410F582E5F0342EF583E0FE7B
:1028A000A3E0FF9001ADE0FCA3E0FDEF2DFFEE3CC7
:1028B000FEC3EF94FFEE94039001ABE075F002507D
:1028C00013A42410F582E5F0342EF583EC8DF0127C
:1028D00014E7807EA42410F582E5F0342EF583748D
:1028E00003F0A374FFF0806A9001ABE0FF75F00283
:1028F000A42410F582E5F0342EF583E0FCA3E0FD7E
:102900009001ADE0FAA3E0FBD3ED9BEC9A402D756E
:10291000F002EFA42410F582E5F0342EF583C08395
:10292000C082C3A3E09BFF0582D582021583158276
:10293000E09AD082D083F0A3EFF080169001ABE054
:1029400075F002A42410F582E5F0342EF583E4F04E
:10295000A3F0902E20E4F0F58D9001ACE004F0029D
:10296000300F9001AFA3E0902E22F0758A1022E480
:10297000F526F525F524F523F526F525F524F5238B
:10298000F522C3E5229405748094805027E5222522
:10299000E0240AF8E6FE08E6FFE4FCFDE5262FF554
:1029A00026E5253EF525ED3524F524EC3523F523E4
:1029B000052280CEE47B05FAF9F8AF26AE25AD24DA
:1029C000AC2312160A900181EEF0A3EFF0E4752615
:1029D000A8752561F524F523F522C3E52294057435
:1029E0008094805073E52225E0240AF8E6FE08E68C
:1029F000FF900181E0FCA3E0FDC3EF9DFFEE9CFE94
:102A0000123E61D3EF940AEE6480948040129001EC
:102A100081E0FEA3E0FF90015BE0FCA3E0FD8015F8
:102A2000E52225E0240AF8E6FE08E6FF90015BE0D7
:102A3000FCA3E0FDC3EF9DFFEE9CFE3395E0FDFCA3
:102A4000E5262FF526E5253EF525E5243DF524E58B
:102A5000233CF52305228082E47F607EEAFDFCAB07
:102A600026AA25A924A823D31216B2400BE4752662
:102A7000607525EAF524F523AE25AF262212397DAF
:102A8000123E0BE490017DF0A3F0900169F0A3F0F9
:102A9000900167F0A3F090016BF0A3F07F0512376F
:102AA0007F900100E0F9A3E0FFA3E0FBA3E0FAA31D
:102AB000E0C98FF0121560900100E0F9A3E0FF90EB
:102AC0000108E0FBA3E0FAA3E0C98FF012156090C3
:102AD0000105E0FBA3E0FAA3E0F9E4F5F0121560CC
:102AE00090010BE0FBA3E0FAA3E0F9746175F0A894
:102AF000121560900111E0FBA3E0FAA3E0F9746104
:102B000075F0A812156090010EE0FBA3E0FAA3E0B7
:102B1000F9E4F5F0121560E4900137F0A3F09001AC
:102B20003FF0FE7F18FD7B017A0179841217407E09
:102B3000007F0C7D007B017A017940121740E49000
:102B400001FAF0A3F09001F8F0A3F09000367410B1
:102B5000F0E490004BF09001EE7403F0A37420F0C9
:102B60009001FEE0700FC39001EDE094F49001EC51
:102B7000E09401500A9001EC7401F0A374F4F02287
:102B8000758D20438D20538D7FE4F5B275B6FF75AA
:102B9000B7FF75B2A243B20153A8FB538B7F758B6D
:102BA00010438B08E58B20E7030080F8538B7F757B
:102BB0008B11438B08E58B20E7030080F890021A05
:102BC000E5B5F0A3E5B4F0758B01E4F5B2123E452E
:102BD000E4F58D90011DE0FBA3E0FAA3E0F91214E7
:102BE000FD45F0701E900217E0FBA3E0FAA3E0F9A8
:102BF0001214FDFF90011DE0FBA3E0FAA3E0F9E54C
:102C0000F0806490011DE0FBA3E0FAA3E0F9121448
:102C1000FDFFAEF07C007D03121713ECC0E0EDC0A9
:102C2000E0EEC0E0EFC0E0900217E0FBA3E0FAA303
:102C3000E0F91214FDFFE4FCFDD0E0FBD0E0FAD097
:102C4000E0F9D0E0F8EB2FFFEA35F0FEED39FDECCE
:102C500038FCE47B04FAF9F812160A90011DE0FB37
:102C6000A3E0FAA3E0F9EE8FF012156022D39001F1
:102C7000EDE094009001ECE0940040030235173041
:102C800000209001A4E07002A3E0600875161F7593
:102C90001740800675161775177075081375098823
:102CA000800C7516007517C8750800750996900197
:102CB00005E0FBA3E0FAA3E0F91214FDFFAEF0C3B8
:102CC0009517EE9516500F90013FE0601AC3EF95EF
:102CD00009EE950840119001F4E07002A3E0702E17
:102CE00090013F04F080279000F1E064209001F40F
:102CF0007005F0A3F08006E4F0A374C8F0E490013E
:102D00003FF09001F2F0A3F09000367410F09001C3
:102D10003FE0FF601D900024E064109000367005D5
:102D20007410F080037420F09001EE7403F0A3742B
:102D300020F090004BEFF022C0E0C083C082C0D0F2
:102D400075D018D2AFE5DB30E424D209C206E5DB4A
:102D500030E116122DCAF583E0F5DFEF64077067E6
:102D6000D28A900007F00235CCC2050235CFE5DBF0
:102D700030E52C9000F0E064AA7017758A10F5DA3F
:102D8000C2AFF5B2F5A8F5A9F58B758E01758DC0AA
:102D900080FED204300604C2068054C2098050C2AC
:102DA00006E5DB30E123E5DB30E044122DCAF58394
:102DB000E0F5DFEF24F9600824EE700BD20A8007FB
:102DC000D28A900007E4F0802320050A7827A6DF46
:102DD000D205D2068019122DCAF583E5DFF0EF6423
:102DE0002470099001EE04F0A374F4F078270675BE
:102DF000DBFFD0D0D082D083D0E032900139E0FB2D
:102E0000A3E0FAA3E0F91214FD641045F070031278
:102E10003B0C900001E064AA7003123A5290001338
:102E2000E0FF7E0064107002D203EF64204E700257
:102E3000C20312388220070890001AE06410700E56
:102E400090001A7411F0C2079001EB7401F0900029
:102E5000FBE06006E4F09001EBF0900171E070049B
:102E6000A3E064017015900171F0A3F09001A674C5
:102E700007F0A374D0F0E49001EBF030040CC2042E
:102E80009001EE7401F0A374F4F022787FE4F6D898
:102E9000FD7581270236B5020000023802E493A3D3
:102EA000F8E493A34003F68001F208DFF48029E4FC
:102EB00093A3F85407240CC8C333C4540F4420C848
:102EC000834004F456800146F6DFE4800B010204DF
:102ED0000810204080903D6FE47E019360BCA3FF0A
:102EE000543F30E509541FFEE493A360010ECF5414
:102EF000C025E060A840B8E493A3FAE493A3F8E403
:102F000093A3C8C582C8CAC583CAF0A3C8C582C86E
:102F1000CAC583CADFE9DEE780BE90014C7420F0A9
:102F2000A37408F0123C2D7E007F047D007B017AA3
:102F300001795B1217407F01123DE7E4FF123DE784
:102F4000902E12E0FEA3E0C39405EE9400400F9093
:102F50002E12E0FEA3E0D394F0EE9403400BE49035
:102F6000014CF0A3F0FF123DE7902E23E4F0900017
:102F70001D7410F0902E12E0FEA3E0FF7C007D0A8D
:102F800012144A90014DE02FFF90014CE03EF99061
:102F9000013CE0FBA3E0FAA3E0C98FF002156090CA
:102FA00001B1EFF0E4A3F09001B1E0FFA3E0C39F13
:102FB000502E1222E0123DC190016BEEF0A3EFF013
:102FC0008E14F515C8740AC87400FCE4FDFB7A0081
:102FD000790CFE7F0A1214249001B2E004F080C73D
:102FE00012314F900100EEF0A3EFF0900169E0FE86
:102FF000A3E0FFC3900134E09FFF900133E09EFE09
:10300000123E617C007D051214B1900131ECF0A3F9
:10301000EDF0900169E0FFA3E0900133CFF0A3EF62
:10302000F02253A87F123D9B122C4E123E2912080B
:103030000E43A880E4F58D9000F17420F01235DB8A
:103040009001EBE014601814601A14602D14603FB6
:10305000240470E01236FA9001EB7401F080D5126E
:10306000325D8023123D41123901900025E0641049
:1030700070C29001EB7404F080BA12082E9001EE39
:103080007403F0A37420F09001EB7402F080A51299
:103090003BA4900025E06410609A9001EB7401F06D
:1030A00080929001FFE0146021146043240270605C
:1030B0003003139001FF7401F0D202D2009001FCA2
:1030C00004F0A37458F0C20180469001FCE0700245
:1030D000A3E07002C2022003379001FF7402F0D215
:1030E00001C202C2009001FCF0A37458F08021904C
:1030F00001FCE07002A3E070179001FF200303F0D1
:10310000800C7401F09001FC04F0A37458F0C2012B
:1031100020010330020A900025E064106002D2070B
:1031200022308A789001ECE07002A3E0706E90018A
:1031300071E07002A3E07064F5B2758D20438D20BC
:10314000758D9043A808D2AF758B4090012DE0FE9D
:10315000A3E0FF4E6005758E148003758E40200439
:103160002F20092CE5DB54047026758A8420092061
:10317000E5DB5404701AF586758703000000758638
:1031800001EF4E60047F0A80027F207E00122A7EBB
:10319000758B01758A1053A8F7123E45227E007F79
:1031A0001C7D007B017A0179CF121740E4FDEDC34D
:1031B0009402748094805057ED75F005A424D6F5E0
:1031C00082E4342DF583E493FFED75F00EA424DA48
:1031D000F582E43401F583EFF0ED75F00EA424DA06
:1031E000F582E43401F583E004F87E007401088080
:1031F00005C333CE33CED8F9FFED75F00EA424DB32
:10320000F582E43401F583EEF0A3EFF00D809F2208
:10321000300A5E20005BC20A902E12E0FFA3E0900D
:1032200001A8CFF0A3EFF0E4FF123DE7902E12E0EB
:10323000FEA3E0FF7C007D0A12144A90014DE02FAE
:10324000FF90014CE03EFE90013CE0FBA3E0FAA3BE
:10325000E0F9EE8FF01215609001A8E0FFA3E09076
:103260002E12CFF0A3EFF09001EE7403F0A37420C0
:10327000F0229001A87408F0A3E4F0A3743FF0A337
:1032800074DFF0E4FDFCF9758A10538AEF009001B9
:10329000A8E0FEA3E02DF582EE3CF583E493FF6900
:1032A000F90DBD00010CBC37E5BDDFE29001AAE0DD
:1032B000FEA3E0F5828E83E493FFE96F700890002F
:1032C000017404F08005E4900001F0758A10538ABF
:1032D000EF0022E4FEEEC39407748094805039EE30
:1032E00075F003A42417F582E4342EF583E5822FCC
:1032F000F582E43583F583E493FDEE75F003A424B1
:1033000016F582E4342EF583E4932420F582E43428
:103310002EF583EDF00E80BDEF701090014CE07043
:1033200002A3E07006902E217412F022E49001A80E
:10333000F0A3F0758A10538AEF00122DE475EA812C
:10334000E4F5F6F5F475F308F5F275EB0700E5EC36
:1033500030E7FBAFF3EFFEADF2EDFF900139E0FB9C
:10336000A3E0FAA3E0F9EE8FF0121560E4F5EC7536
:10337000EB30758A10538AEF0022900036E0FF9000
:1033800000FFE06F603D900036E0FD9000FFF090A0
:103390000007E0900200F0540FF0ED7E0064207012
:1033A00005E04420800CEF64104E700B900200E0AA
:1033B0004410F0900007F0C28A9001F07403F0A36B
:1033C00074E8F022900025E06410703FF5B2758D2E
:1033D00020438D20538D7F53A8F7F58BE5DB5404F4
:1033E0007013200910F58AF58675870300000075B3
:1033F0008601758A10758B019001FE7401F09001B1
:10340000EE7403F0A37420F0123E45229001AAEF5F
:10341000F07E007F10EEC0E0EFC0E07D00E075F0D0
:1034200010A42401F9740235F0FA7B01D0E0FFD03A
:10343000E0FE1217409001AAE0C454F0240FF58278
:10344000E43402F583740BF0A374B8F022E4FFEFC8
:10345000C3940B74809480502BEF25E02401F582F7
:10346000E4342EF583E493FEEF25E02400F582E4B6
:10347000342EF583E4932420F582E4342EF583EE94
:10348000F00F80CB902F56E0902E2BF0229001B0C1
:103490007401F09001B0E0C39405748094805021D1
:1034A0007F0112377F122E2B900102E0FBA3E0FA7E
:1034B000A3E0F9EE8FF01215609001B0E004F08007
:1034C000D2E49001F4F0A3F02290015CE0246CFFC0
:1034D00090015BE034EEFEC390016AE09F900169C9
:1034E000E09E5014900171E07002A3E07011900111
:1034F0007104F0A374F4F022E4900171F0A3F022BF
:10350000EF903E7593903E6D93FE540FFDF874015D
:10351000088002C333D8FCFDEE54F06008EDF4528D
:103520009152938009ED42ABEDF452895296538942
:10353000FD22EF903E7593903E6D93FE540FFDF883
:103540007401088002C333D8FCFDEE54F06008ED2E
:103550004291ED42888006ED4289ED428043890226
:10356000227F0112377F122E2B900102E0FBA3E095
:10357000FAA3E0F9EE8FF0121560121F1712176C04
:1035800012344D12262A123B5A123CA90239F0C1BC
:1035900009C10A410200004101FF00C103C101C18C
:1035A00000C102C105012700C104C106C108C1074D
:1035B0004100FF1043021701021A00758A10538A56
:1035C000EFE4F586758F04F5ABF5AC43AC0C758074
:1035D000FF7588FF7589FF759104F595F592D28A7C
:1035E00022900169E0FEA3E0FF900167EEF0A3EFF7
:1035F000F0E4FCFD9001BF1216D690016BE0FCA335
:10360000E0FD7F01021B4B9001AAEFF0123CE0901D
:1036100001AAE0FF123AB39001AAE0903E7593FF31
:10362000122FD89001AAE0FF023D127E007F047D98
:10363000007B017A01795F1217407E007F047D00D4
:103640007B017A017963021740E4F5DA75DA4043C9
:10365000DA2075D74075D64075DA5843A80275B898
:103660000475F80422E5B254016006E5A854107010
:103670000F75B29275B6F9E4F5B743B20143A810DD
:1036800022EE30E707C3E49FFFE49EFE220203041C
:1036900010111500010106000000000000000000EC
:1036A000000000000000000000000000000000001A
:1036B000000000000000000000000000000000000A
:1036C00000000000000000000000000000000000FA
:1036D00000000000000000000000000000000000EA
:1036E00000000000000000000000000000000000DA
:1036F00000000000000000000000000000000000CA
:1037000000000000000000000000000000000000B9
:1037100000000000000000000000000000000000A9
:103720000000000000000000000000000000000099
:103730000000000000000000000000000000000089
:103740000000000000000000000000000000000079
:103750000000000000000000000000000000000069
:103760000000000000000000000000000000000059
:103770000000000000000000000000000000000049
:103780000000000000000000000000000000000039
:103790000000000000000000000000000000000029
:1037A0000000000000000000000000000000000019
:1037B0000000000000000000000000000000000009
:1037C00000000000000000000000000000000000F9
:1037D00000000000000000000000000000000000E9
:1037E00000000000000000000000000000000000D9
:1037F0000000000000000000000000000000007356
:1038000000000000000000000000000000000000B8
:1038100000000000000000000000000000000000A8
:00000001FF
